{
  "_format": "hh-sol-artifact-1",
  "contractName": "BayesianScorer",
  "sourceName": "contracts/BayesianScorer.sol",
  "abi": [
    {
      "inputs": [],
      "name": "ALPHA_PRIOR",
      "outputs": [
        {
          "internalType": "uint256",
          "name": "",
          "type": "uint256"
        }
      ],
      "stateMutability": "view",
      "type": "function"
    },
    {
      "inputs": [],
      "name": "BETA_PRIOR",
      "outputs": [
        {
          "internalType": "uint256",
          "name": "",
          "type": "uint256"
        }
      ],
      "stateMutability": "view",
      "type": "function"
    },
    {
      "inputs": [
        {
          "internalType": "uint256",
          "name": "successes",
          "type": "uint256"
        },
        {
          "internalType": "uint256",
          "name": "failures",
          "type": "uint256"
        }
      ],
      "name": "computePosterior",
      "outputs": [
        {
          "internalType": "uint256",
          "name": "",
          "type": "uint256"
        }
      ],
      "stateMutability": "pure",
      "type": "function"
    },
    {
      "inputs": [
        {
          "internalType": "uint256",
          "name": "successes",
          "type": "uint256"
        },
        {
          "internalType": "uint256",
          "name": "failures",
          "type": "uint256"
        },
        {
          "internalType": "uint256",
          "name": "floor",
          "type": "uint256"
        }
      ],
      "name": "isValid",
      "outputs": [
        {
          "internalType": "bool",
          "name": "",
          "type": "bool"
        }
      ],
      "stateMutability": "pure",
      "type": "function"
    }
  ],
  "bytecode": "0x608060405234801561001057600080fd5b506103d4806100206000396000f3fe608060405234801561001057600080fd5b506004361061004c5760003560e01c806388790f4c14610051578063be037f3614610081578063cf67c93d1461009f578063e0988252146100cf575b600080fd5b61006b600480360381019061006691906101a6565b6100ed565b60405161007891906101f5565b60405180910390f35b610089610144565b60405161009691906101f5565b60405180910390f35b6100b960048036038101906100b49190610210565b610149565b6040516100c6919061027e565b60405180910390f35b6100d7610166565b6040516100e491906101f5565b60405180910390f35b6000808360016100fd91906102c8565b9050600083600a61010e91906102c8565b90506000818361011e91906102c8565b9050806127108461012f91906102fc565b610139919061036d565b935050505092915050565b600181565b60008061015685856100ed565b9050828110159150509392505050565b600a81565b600080fd5b6000819050919050565b61018381610170565b811461018e57600080fd5b50565b6000813590506101a08161017a565b92915050565b600080604083850312156101bd576101bc61016b565b5b60006101cb85828601610191565b92505060206101dc85828601610191565b9150509250929050565b6101ef81610170565b82525050565b600060208201905061020a60008301846101e6565b92915050565b6000806000606084860312156102295761022861016b565b5b600061023786828701610191565b935050602061024886828701610191565b925050604061025986828701610191565b9150509250925092565b60008115159050919050565b61027881610263565b82525050565b6000602082019050610293600083018461026f565b92915050565b7f4e487b7100000000000000000000000000000000000000000000000000000000600052601160045260246000fd5b60006102d382610170565b91506102de83610170565b92508282019050808211156102f6576102f5610299565b5b92915050565b600061030782610170565b915061031283610170565b925082820261032081610170565b9150828204841483151761033757610336610299565b5b5092915050565b7f4e487b7100000000000000000000000000000000000000000000000000000000600052601260045260246000fd5b600061037882610170565b915061038383610170565b9250826103935761039261033e565b5b82820490509291505056fea26469706673582212209b641aad0cb46a232ecdc5ee1c59c37943dc3c7f33c872e2bb65765ef88cc27764736f6c63430008140033",
  "linkReferences": {},
  "deployedLinkReferences": {}
}