{
  "_format": "hh-sol-artifact-1",
  "contractName": "TEEVerifier",
  "sourceName": "contracts/TEEVerifier.sol",
  "abi": [
    {
      "inputs": [
        {
          "internalType": "address",
          "name": "_kernel",
          "type": "address"
        },
        {
          "internalType": "bytes32",
          "name": "_expectedHash",
          "type": "bytes32"
        }
      ],
      "stateMutability": "nonpayable",
      "type": "constructor"
    },
    {
      "inputs": [],
      "name": "expectedPCRHash",
      "outputs": [
        {
          "internalType": "bytes32",
          "name": "",
          "type": "bytes32"
        }
      ],
      "stateMutability": "view",
      "type": "function"
    },
    {
      "inputs": [],
      "name": "kernel",
      "outputs": [
        {
          "internalType": "contract SafetyKernel",
          "name": "",
          "type": "address"
        }
      ],
      "stateMutability": "view",
      "type": "function"
    },
    {
      "inputs": [
        {
          "internalType": "bytes",
          "name": "attestation",
          "type": "bytes"
        }
      ],
      "name": "verify",
      "outputs": [],
      "stateMutability": "nonpayable",
      "type": "function"
    }
  ],
  "bytecode": "0x608060405234801561001057600080fd5b506040516105ac3803806105ac83398181016040528101906100329190610119565b816000806101000a81548173ffffffffffffffffffffffffffffffffffffffff021916908373ffffffffffffffffffffffffffffffffffffffff160217905550806001819055505050610159565b600080fd5b600073ffffffffffffffffffffffffffffffffffffffff82169050919050565b60006100b082610085565b9050919050565b6100c0816100a5565b81146100cb57600080fd5b50565b6000815190506100dd816100b7565b92915050565b6000819050919050565b6100f6816100e3565b811461010157600080fd5b50565b600081519050610113816100ed565b92915050565b600080604083850312156101305761012f610080565b5b600061013e858286016100ce565b925050602061014f85828601610104565b9150509250929050565b610444806101686000396000f3fe608060405234801561001057600080fd5b50600436106100415760003560e01c80638e760afe14610046578063d4aae0c414610062578063eba1972b14610080575b600080fd5b610060600480360381019061005b91906101f2565b61009e565b005b61006a610159565b60405161007791906102be565b60405180910390f35b61008861017d565b60405161009591906102f2565b60405180910390f35b600082826040516100b092919061034c565b6040518091039020905060015481146101545760008054906101000a900473ffffffffffffffffffffffffffffffffffffffff1673ffffffffffffffffffffffffffffffffffffffff16638fefd8ea6000611f406040518363ffffffff1660e01b81526004016101219291906103e5565b600060405180830381600087803b15801561013b57600080fd5b505af115801561014f573d6000803e3d6000fd5b505050505b505050565b60008054906101000a900473ffffffffffffffffffffffffffffffffffffffff1681565b60015481565b600080fd5b600080fd5b600080fd5b600080fd5b600080fd5b60008083601f8401126101b2576101b161018d565b5b8235905067ffffffffffffffff8111156101cf576101ce610192565b5b6020830191508360018202830111156101eb576101ea610197565b5b9250929050565b6000806020838503121561020957610208610183565b5b600083013567ffffffffffffffff81111561022757610226610188565b5b6102338582860161019c565b92509250509250929050565b600073ffffffffffffffffffffffffffffffffffffffff82169050919050565b6000819050919050565b600061028461027f61027a8461023f565b61025f565b61023f565b9050919050565b600061029682610269565b9050919050565b60006102a88261028b565b9050919050565b6102b88161029d565b82525050565b60006020820190506102d360008301846102af565b92915050565b6000819050919050565b6102ec816102d9565b82525050565b600060208201905061030760008301846102e3565b92915050565b600081905092915050565b82818337600083830152505050565b6000610333838561030d565b9350610340838584610318565b82840190509392505050565b6000610359828486610327565b91508190509392505050565b6000819050919050565b6000819050919050565b600061039461038f61038a84610365565b61025f565b61036f565b9050919050565b6103a481610379565b82525050565b6000819050919050565b60006103cf6103ca6103c5846103aa565b61025f565b61036f565b9050919050565b6103df816103b4565b82525050565b60006040820190506103fa600083018561039b565b61040760208301846103d6565b939250505056fea26469706673582212200d7c9bbc17f59d4fd8dfb9cf8db68e7de303aafde3bb0a8cd3757748bdca451e64736f6c63430008140033",
  "linkReferences": {},
  "deployedLinkReferences": {}
}