{
  "_format": "hh-sol-artifact-1",
  "contractName": "SafeERC20",
  "sourceName": "contracts/SafeERC20.sol",
  "abi": [
    {
      "inputs": [
        {
          "internalType": "string",
          "name": "name",
          "type": "string"
        },
        {
          "internalType": "string",
          "name": "symbol",
          "type": "string"
        },
        {
          "internalType": "address",
          "name": "_kernel",
          "type": "address"
        }
      ],
      "stateMutability": "nonpayable",
      "type": "constructor"
    },
    {
      "inputs": [
        {
          "internalType": "address",
          "name": "spender",
          "type": "address"
        },
        {
          "internalType": "uint256",
          "name": "allowance",
          "type": "uint256"
        },
        {
          "internalType": "uint256",
          "name": "needed",
          "type": "uint256"
        }
      ],
      "name": "ERC20InsufficientAllowance",
      "type": "error"
    },
    {
      "inputs": [
        {
          "internalType": "address",
          "name": "sender",
          "type": "address"
        },
        {
          "internalType": "uint256",
          "name": "balance",
          "type": "uint256"
        },
        {
          "internalType": "uint256",
          "name": "needed",
          "type": "uint256"
        }
      ],
      "name": "ERC20InsufficientBalance",
      "type": "error"
    },
    {
      "inputs": [
        {
          "internalType": "address",
          "name": "approver",
          "type": "address"
        }
      ],
      "name": "ERC20InvalidApprover",
      "type": "error"
    },
    {
      "inputs": [
        {
          "internalType": "address",
          "name": "receiver",
          "type": "address"
        }
      ],
      "name": "ERC20InvalidReceiver",
      "type": "error"
    },
    {
      "inputs": [
        {
          "internalType": "address",
          "name": "sender",
          "type": "address"
        }
      ],
      "name": "ERC20InvalidSender",
      "type": "error"
    },
    {
      "inputs": [
        {
          "internalType": "address",
          "name": "spender",
          "type": "address"
        }
      ],
      "name": "ERC20InvalidSpender",
      "type": "error"
    },
    {
      "anonymous": false,
      "inputs": [
        {
          "indexed": true,
          "internalType": "address",
          "name": "owner",
          "type": "address"
        },
        {
          "indexed": true,
          "internalType": "address",
          "name": "spender",
          "type": "address"
        },
        {
          "indexed": false,
          "internalType": "uint256",
          "name": "value",
          "type": "uint256"
        }
      ],
      "name": "Approval",
      "type": "event"
    },
    {
      "anonymous": false,
      "inputs": [
        {
          "indexed": true,
          "internalType": "address",
          "name": "from",
          "type": "address"
        },
        {
          "indexed": true,
          "internalType": "address",
          "name": "to",
          "type": "address"
        },
        {
          "indexed": false,
          "internalType": "uint256",
          "name": "value",
          "type": "uint256"
        }
      ],
      "name": "Transfer",
      "type": "event"
    },
    {
      "inputs": [
        {
          "internalType": "address",
          "name": "owner",
          "type": "address"
        },
        {
          "internalType": "address",
          "name": "spender",
          "type": "address"
        }
      ],
      "name": "allowance",
      "outputs": [
        {
          "internalType": "uint256",
          "name": "",
          "type": "uint256"
        }
      ],
      "stateMutability": "view",
      "type": "function"
    },
    {
      "inputs": [
        {
          "internalType": "address",
          "name": "spender",
          "type": "address"
        },
        {
          "internalType": "uint256",
          "name": "value",
          "type": "uint256"
        }
      ],
      "name": "approve",
      "outputs": [
        {
          "internalType": "bool",
          "name": "",
          "type": "bool"
        }
      ],
      "stateMutability": "nonpayable",
      "type": "function"
    },
    {
      "inputs": [
        {
          "internalType": "address",
          "name": "account",
          "type": "address"
        }
      ],
      "name": "balanceOf",
      "outputs": [
        {
          "internalType": "uint256",
          "name": "",
          "type": "uint256"
        }
      ],
      "stateMutability": "view",
      "type": "function"
    },
    {
      "inputs": [],
      "name": "decimals",
      "outputs": [
        {
          "internalType": "uint8",
          "name": "",
          "type": "uint8"
        }
      ],
      "stateMutability": "view",
      "type": "function"
    },
    {
      "inputs": [],
      "name": "kernel",
      "outputs": [
        {
          "internalType": "contract SafetyKernel",
          "name": "",
          "type": "address"
        }
      ],
      "stateMutability": "view",
      "type": "function"
    },
    {
      "inputs": [],
      "name": "name",
      "outputs": [
        {
          "internalType": "string",
          "name": "",
          "type": "string"
        }
      ],
      "stateMutability": "view",
      "type": "function"
    },
    {
      "inputs": [],
      "name": "symbol",
      "outputs": [
        {
          "internalType": "string",
          "name": "",
          "type": "string"
        }
      ],
      "stateMutability": "view",
      "type": "function"
    },
    {
      "inputs": [],
      "name": "totalSupply",
      "outputs": [
        {
          "internalType": "uint256",
          "name": "",
          "type": "uint256"
        }
      ],
      "stateMutability": "view",
      "type": "function"
    },
    {
      "inputs": [
        {
          "internalType": "address",
          "name": "to",
          "type": "address"
        },
        {
          "internalType": "uint256",
          "name": "amount",
          "type": "uint256"
        }
      ],
      "name": "transfer",
      "outputs": [
        {
          "internalType": "bool",
          "name": "",
          "type": "bool"
        }
      ],
      "stateMutability": "nonpayable",
      "type": "function"
    },
    {
      "inputs": [
        {
          "internalType": "address",
          "name": "from",
          "type": "address"
        },
        {
          "internalType": "address",
          "name": "to",
          "type": "address"
        },
        {
          "internalType": "uint256",
          "name": "amount",
          "type": "uint256"
        }
      ],
      "name": "transferFrom",
      "outputs": [
        {
          "internalType": "bool",
          "name": "",
          "type": "bool"
        }
      ],
      "stateMutability": "nonpayable",
      "type": "function"
    }
  ],
  "bytecode": "0x60806040523480156200001157600080fd5b5060405162001ccb38038062001ccb8339818101604052810190620000379190620005a6565b828281600390816200004a91906200088b565b5080600490816200005c91906200088b565b50505080600560006101000a81548173ffffffffffffffffffffffffffffffffffffffff021916908373ffffffffffffffffffffffffffffffffffffffff160217905550620000df33620000b5620000e860201b60201c565b600a620000c3919062000b02565b620f4240620000d3919062000b53565b620000f160201b60201c565b50505062000c72565b60006012905090565b600073ffffffffffffffffffffffffffffffffffffffff168273ffffffffffffffffffffffffffffffffffffffff1603620001665760006040517fec442f050000000000000000000000000000000000000000000000000000000081526004016200015d919062000baf565b60405180910390fd5b6200017a600083836200017e60201b60201c565b5050565b600073ffffffffffffffffffffffffffffffffffffffff168373ffffffffffffffffffffffffffffffffffffffff1603620001d4578060026000828254620001c7919062000bcc565b92505081905550620002aa565b60008060008573ffffffffffffffffffffffffffffffffffffffff1673ffffffffffffffffffffffffffffffffffffffff1681526020019081526020016000205490508181101562000263578381836040517fe450d38c0000000000000000000000000000000000000000000000000000000081526004016200025a9392919062000c18565b60405180910390fd5b8181036000808673ffffffffffffffffffffffffffffffffffffffff1673ffffffffffffffffffffffffffffffffffffffff16815260200190815260200160002081905550505b600073ffffffffffffffffffffffffffffffffffffffff168273ffffffffffffffffffffffffffffffffffffffff1603620002f5578060026000828254039250508190555062000342565b806000808473ffffffffffffffffffffffffffffffffffffffff1673ffffffffffffffffffffffffffffffffffffffff168152602001908152602001600020600082825401925050819055505b8173ffffffffffffffffffffffffffffffffffffffff168373ffffffffffffffffffffffffffffffffffffffff167fddf252ad1be2c89b69c2b068fc378daa952ba7f163c4a11628f55a4df523b3ef83604051620003a1919062000c55565b60405180910390a3505050565b6000604051905090565b600080fd5b600080fd5b600080fd5b600080fd5b6000601f19601f8301169050919050565b7f4e487b7100000000000000000000000000000000000000000000000000000000600052604160045260246000fd5b6200041782620003cc565b810181811067ffffffffffffffff82111715620004395762000438620003dd565b5b80604052505050565b60006200044e620003ae565b90506200045c82826200040c565b919050565b600067ffffffffffffffff8211156200047f576200047e620003dd565b5b6200048a82620003cc565b9050602081019050919050565b60005b83811015620004b75780820151818401526020810190506200049a565b60008484015250505050565b6000620004da620004d48462000461565b62000442565b905082815260208101848484011115620004f957620004f8620003c7565b5b6200050684828562000497565b509392505050565b600082601f830112620005265762000525620003c2565b5b815162000538848260208601620004c3565b91505092915050565b600073ffffffffffffffffffffffffffffffffffffffff82169050919050565b60006200056e8262000541565b9050919050565b620005808162000561565b81146200058c57600080fd5b50565b600081519050620005a08162000575565b92915050565b600080600060608486031215620005c257620005c1620003b8565b5b600084015167ffffffffffffffff811115620005e357620005e2620003bd565b5b620005f1868287016200050e565b935050602084015167ffffffffffffffff811115620006155762000614620003bd565b5b62000623868287016200050e565b925050604062000636868287016200058f565b9150509250925092565b600081519050919050565b7f4e487b7100000000000000000000000000000000000000000000000000000000600052602260045260246000fd5b600060028204905060018216806200069357607f821691505b602082108103620006a957620006a86200064b565b5b50919050565b60008190508160005260206000209050919050565b60006020601f8301049050919050565b600082821b905092915050565b600060088302620007137fffffffffffffffffffffffffffffffffffffffffffffffffffffffffffffffff82620006d4565b6200071f8683620006d4565b95508019841693508086168417925050509392505050565b6000819050919050565b6000819050919050565b60006200076c62000766620007608462000737565b62000741565b62000737565b9050919050565b6000819050919050565b62000788836200074b565b620007a0620007978262000773565b848454620006e1565b825550505050565b600090565b620007b7620007a8565b620007c48184846200077d565b505050565b5b81811015620007ec57620007e0600082620007ad565b600181019050620007ca565b5050565b601f8211156200083b576200080581620006af565b6200081084620006c4565b8101602085101562000820578190505b620008386200082f85620006c4565b830182620007c9565b50505b505050565b600082821c905092915050565b6000620008606000198460080262000840565b1980831691505092915050565b60006200087b83836200084d565b9150826002028217905092915050565b620008968262000640565b67ffffffffffffffff811115620008b257620008b1620003dd565b5b620008be82546200067a565b620008cb828285620007f0565b600060209050601f831160018114620009035760008415620008ee578287015190505b620008fa85826200086d565b8655506200096a565b601f1984166200091386620006af565b60005b828110156200093d5784890151825560018201915060208501945060208101905062000916565b868310156200095d578489015162000959601f8916826200084d565b8355505b6001600288020188555050505b505050505050565b7f4e487b7100000000000000000000000000000000000000000000000000000000600052601160045260246000fd5b60008160011c9050919050565b6000808291508390505b600185111562000a0057808604811115620009d857620009d762000972565b5b6001851615620009e85780820291505b8081029050620009f885620009a1565b9450620009b8565b94509492505050565b60008262000a1b576001905062000aee565b8162000a2b576000905062000aee565b816001811462000a44576002811462000a4f5762000a85565b600191505062000aee565b60ff84111562000a645762000a6362000972565b5b8360020a91508482111562000a7e5762000a7d62000972565b5b5062000aee565b5060208310610133831016604e8410600b841016171562000abf5782820a90508381111562000ab95762000ab862000972565b5b62000aee565b62000ace8484846001620009ae565b9250905081840481111562000ae85762000ae762000972565b5b81810290505b9392505050565b600060ff82169050919050565b600062000b0f8262000737565b915062000b1c8362000af5565b925062000b4b7fffffffffffffffffffffffffffffffffffffffffffffffffffffffffffffffff848462000a09565b905092915050565b600062000b608262000737565b915062000b6d8362000737565b925082820262000b7d8162000737565b9150828204841483151762000b975762000b9662000972565b5b5092915050565b62000ba98162000561565b82525050565b600060208201905062000bc6600083018462000b9e565b92915050565b600062000bd98262000737565b915062000be68362000737565b925082820190508082111562000c015762000c0062000972565b5b92915050565b62000c128162000737565b82525050565b600060608201905062000c2f600083018662000b9e565b62000c3e602083018562000c07565b62000c4d604083018462000c07565b949350505050565b600060208201905062000c6c600083018462000c07565b92915050565b6110498062000c826000396000f3fe608060405234801561001057600080fd5b506004361061009e5760003560e01c806370a082311161006657806370a082311461015d57806395d89b411461018d578063a9059cbb146101ab578063d4aae0c4146101db578063dd62ed3e146101f95761009e565b806306fdde03146100a3578063095ea7b3146100c157806318160ddd146100f157806323b872dd1461010f578063313ce5671461013f575b600080fd5b6100ab610229565b6040516100b89190610c23565b60405180910390f35b6100db60048036038101906100d69190610cde565b6102bb565b6040516100e89190610d39565b60405180910390f35b6100f96102de565b6040516101069190610d63565b60405180910390f35b61012960048036038101906101249190610d7e565b6102e8565b6040516101369190610d39565b60405180910390f35b61014761037e565b6040516101549190610ded565b60405180910390f35b61017760048036038101906101729190610e08565b610387565b6040516101849190610d63565b60405180910390f35b6101956103cf565b6040516101a29190610c23565b60405180910390f35b6101c560048036038101906101c09190610cde565b610461565b6040516101d29190610d39565b60405180910390f35b6101e36104f5565b6040516101f09190610e94565b60405180910390f35b610213600480360381019061020e9190610eaf565b61051b565b6040516102209190610d63565b60405180910390f35b60606003805461023890610f1e565b80601f016020809104026020016040519081016040528092919081815260200182805461026490610f1e565b80156102b15780601f10610286576101008083540402835291602001916102b1565b820191906000526020600020905b81548152906001019060200180831161029457829003601f168201915b5050505050905090565b6000806102c66105a2565b90506102d38185856105aa565b600191505092915050565b6000600254905090565b6000600560009054906101000a900473ffffffffffffffffffffffffffffffffffffffff1673ffffffffffffffffffffffffffffffffffffffff16639142417f6040518163ffffffff1660e01b815260040160006040518083038186803b15801561035257600080fd5b505afa158015610366573d6000803e3d6000fd5b505050506103758484846105bc565b90509392505050565b60006012905090565b60008060008373ffffffffffffffffffffffffffffffffffffffff1673ffffffffffffffffffffffffffffffffffffffff168152602001908152602001600020549050919050565b6060600480546103de90610f1e565b80601f016020809104026020016040519081016040528092919081815260200182805461040a90610f1e565b80156104575780601f1061042c57610100808354040283529160200191610457565b820191906000526020600020905b81548152906001019060200180831161043a57829003601f168201915b5050505050905090565b6000600560009054906101000a900473ffffffffffffffffffffffffffffffffffffffff1673ffffffffffffffffffffffffffffffffffffffff16639142417f6040518163ffffffff1660e01b815260040160006040518083038186803b1580156104cb57600080fd5b505afa1580156104df573d6000803e3d6000fd5b505050506104ed83836105eb565b905092915050565b600560009054906101000a900473ffffffffffffffffffffffffffffffffffffffff1681565b6000600160008473ffffffffffffffffffffffffffffffffffffffff1673ffffffffffffffffffffffffffffffffffffffff16815260200190815260200160002060008373ffffffffffffffffffffffffffffffffffffffff1673ffffffffffffffffffffffffffffffffffffffff16815260200190815260200160002054905092915050565b600033905090565b6105b7838383600161060e565b505050565b6000806105c76105a2565b90506105d48582856107e5565b6105df85858561087a565b60019150509392505050565b6000806105f66105a2565b905061060381858561087a565b600191505092915050565b600073ffffffffffffffffffffffffffffffffffffffff168473ffffffffffffffffffffffffffffffffffffffff16036106805760006040517fe602df050000000000000000000000000000000000000000000000000000000081526004016106779190610f5e565b60405180910390fd5b600073ffffffffffffffffffffffffffffffffffffffff168373ffffffffffffffffffffffffffffffffffffffff16036106f25760006040517f94280d620000000000000000000000000000000000000000000000000000000081526004016106e99190610f5e565b60405180910390fd5b81600160008673ffffffffffffffffffffffffffffffffffffffff1673ffffffffffffffffffffffffffffffffffffffff16815260200190815260200160002060008573ffffffffffffffffffffffffffffffffffffffff1673ffffffffffffffffffffffffffffffffffffffff1681526020019081526020016000208190555080156107df578273ffffffffffffffffffffffffffffffffffffffff168473ffffffffffffffffffffffffffffffffffffffff167f8c5be1e5ebec7d5bd14f71427d1e84f3dd0314c0f7b2291e5b200ac8c7c3b925846040516107d69190610d63565b60405180910390a35b50505050565b60006107f1848461051b565b90507fffffffffffffffffffffffffffffffffffffffffffffffffffffffffffffffff8110156108745781811015610864578281836040517ffb8f41b200000000000000000000000000000000000000000000000000000000815260040161085b93929190610f79565b60405180910390fd5b6108738484848403600061060e565b5b50505050565b600073ffffffffffffffffffffffffffffffffffffffff168373ffffffffffffffffffffffffffffffffffffffff16036108ec5760006040517f96c6fd1e0000000000000000000000000000000000000000000000000000000081526004016108e39190610f5e565b60405180910390fd5b600073ffffffffffffffffffffffffffffffffffffffff168273ffffffffffffffffffffffffffffffffffffffff160361095e5760006040517fec442f050000000000000000000000000000000000000000000000000000000081526004016109559190610f5e565b60405180910390fd5b61096983838361096e565b505050565b600073ffffffffffffffffffffffffffffffffffffffff168373ffffffffffffffffffffffffffffffffffffffff16036109c05780600260008282546109b49190610fdf565b92505081905550610a93565b60008060008573ffffffffffffffffffffffffffffffffffffffff1673ffffffffffffffffffffffffffffffffffffffff16815260200190815260200160002054905081811015610a4c578381836040517fe450d38c000000000000000000000000000000000000000000000000000000008152600401610a4393929190610f79565b60405180910390fd5b8181036000808673ffffffffffffffffffffffffffffffffffffffff1673ffffffffffffffffffffffffffffffffffffffff16815260200190815260200160002081905550505b600073ffffffffffffffffffffffffffffffffffffffff168273ffffffffffffffffffffffffffffffffffffffff1603610adc5780600260008282540392505081905550610b29565b806000808473ffffffffffffffffffffffffffffffffffffffff1673ffffffffffffffffffffffffffffffffffffffff168152602001908152602001600020600082825401925050819055505b8173ffffffffffffffffffffffffffffffffffffffff168373ffffffffffffffffffffffffffffffffffffffff167fddf252ad1be2c89b69c2b068fc378daa952ba7f163c4a11628f55a4df523b3ef83604051610b869190610d63565b60405180910390a3505050565b600081519050919050565b600082825260208201905092915050565b60005b83811015610bcd578082015181840152602081019050610bb2565b60008484015250505050565b6000601f19601f8301169050919050565b6000610bf582610b93565b610bff8185610b9e565b9350610c0f818560208601610baf565b610c1881610bd9565b840191505092915050565b60006020820190508181036000830152610c3d8184610bea565b905092915050565b600080fd5b600073ffffffffffffffffffffffffffffffffffffffff82169050919050565b6000610c7582610c4a565b9050919050565b610c8581610c6a565b8114610c9057600080fd5b50565b600081359050610ca281610c7c565b92915050565b6000819050919050565b610cbb81610ca8565b8114610cc657600080fd5b50565b600081359050610cd881610cb2565b92915050565b60008060408385031215610cf557610cf4610c45565b5b6000610d0385828601610c93565b9250506020610d1485828601610cc9565b9150509250929050565b60008115159050919050565b610d3381610d1e565b82525050565b6000602082019050610d4e6000830184610d2a565b92915050565b610d5d81610ca8565b82525050565b6000602082019050610d786000830184610d54565b92915050565b600080600060608486031215610d9757610d96610c45565b5b6000610da586828701610c93565b9350506020610db686828701610c93565b9250506040610dc786828701610cc9565b9150509250925092565b600060ff82169050919050565b610de781610dd1565b82525050565b6000602082019050610e026000830184610dde565b92915050565b600060208284031215610e1e57610e1d610c45565b5b6000610e2c84828501610c93565b91505092915050565b6000819050919050565b6000610e5a610e55610e5084610c4a565b610e35565b610c4a565b9050919050565b6000610e6c82610e3f565b9050919050565b6000610e7e82610e61565b9050919050565b610e8e81610e73565b82525050565b6000602082019050610ea96000830184610e85565b92915050565b60008060408385031215610ec657610ec5610c45565b5b6000610ed485828601610c93565b9250506020610ee585828601610c93565b9150509250929050565b7f4e487b7100000000000000000000000000000000000000000000000000000000600052602260045260246000fd5b60006002820490506001821680610f3657607f821691505b602082108103610f4957610f48610eef565b5b50919050565b610f5881610c6a565b82525050565b6000602082019050610f736000830184610f4f565b92915050565b6000606082019050610f8e6000830186610f4f565b610f9b6020830185610d54565b610fa86040830184610d54565b949350505050565b7f4e487b7100000000000000000000000000000000000000000000000000000000600052601160045260246000fd5b6000610fea82610ca8565b9150610ff583610ca8565b925082820190508082111561100d5761100c610fb0565b5b9291505056fea26469706673582212203c1cd6ef79d06be54e76100534c6dd256d19ff0fd32d1c3f7aa48bcade72118f64736f6c63430008140033",
  "linkReferences": {},
  "deployedLinkReferences": {}
}